S0140000626C696E6B794F75747075742E73726563F6
S31500000000C01A0020612D0000892B00005D2D000024
S315000000105D2D00005D2D00005D2D00005D2D0000B2
S315000000200000000000000000000000005D2D000040
S315000000305D2D0000000000005D2D00005D2D00001C
S31500000040F51A0000591A0000851B0000CD1B0000A0
S3150000005075220000B5230000A924000071250000C8
S31500000060000000000000000000000000000000008A
S31500000070000000000000000000000000000000007A
S31500000080000000000000000000000000000000006A
S31500000090000000000000000000000000000000005A
S315000000A0000000000000000000000000000000004A
S315000000B0000000000000000000000000000000003A
S315000000C0000000000000000000000000000000002A
S315000000D0000000000000000000000000000000001A
S315000000E0000000000000000000000000000000000A
S315000000F000000000000000000000000000000000FA
S3150000010000000000000000000000000000000000E9
S3150000011000000000000000000000000000000000D9
S3150000012000000000000000000000000000000000C9
S3150000013000000000000000000000000000000000B9
S3150000014000000000000000000000000000000000A9
S315000001500000000000000000000000000000000099
S315000001600000000000000000000000000000000089
S315000001700000000000000000000000000000000079
S315000001800000000000000000000000000000000069
S315000001900000000000000000000000000000000059
S315000001A00000000000000000000000000000000049
S315000001B00000000000000000000000000000000039
S315000001C0FFFFFFFFFFFFFFFFFFFFFFFFFFFFFFFF39
S315000001D0FFFFFFFFFFFFFFFFFFFFFFFFFFFFFFFF29
S315000001E0FFFFFFFFFFFFFFFFFFFFFFFFFFFFFFFF19
S315000001F0FFFFFFFFFFFFFFFFFFFFFFFFFFFFFFFF09
S315000002000348044B834202D0034B03B1184770479F
S315000002101C0200201C02002000000000064B0749BB
S31500000220C91A891048BF0131491003D0044B0BB1DC
S3150000023001481847704700BF1C0200201C0200201E
S315000002400000000010B5064C237843B9FFF7D8FF2D
S31500000250044B13B10448AFF300800123237010BD93
S315000002603802002000000000A46E000008B5054B0F
S315000002701BB105490548AFF30080BDE80840FFF70C
S31500000280CDBF00BF000000003C020020A46E0000AD
S315000002902DE9F843171E1FDD7B1E4FF00209134E92
S315000002A0DFF84C804C1ECD180BE0317898F8000032
S315000002B0012904BF022186F8009000F059FCAC42E7
S315000002C00AD014F9010F0D2809D00A28C0B2ECD0C3
S315000002D000F01AFCAC42F4D13846BDE8F8830120A0
S315000002E0317888F8000000F043FCE8E76802002057
S315000002F069020020FFFFFFFF014B1B8813B9FEE7D1
S31500000300546B00002DE9F04F0024C5B0B44D6422B3
S315000003102146B44E2BA82C7004F025F8B249B348F8
S3150000032001F0E4F93368B24F5B685B689B689A68D2
S31500000330D3E90001126890473146AE4EAE4801F04F
S3150000034031F873685B685B689B689A68D3E900015B
S31500000350126890473146A94800F082FE0223012622
S31500000360A74A2146126890681A4603F0E5FEA54B97
S31500000370214620461E703E7000F0CAFBA14B38781D
S31500000380197800F0F5FBA04803F0C4FE00F002FC6B
S3150000039003239E499E48CDE90E34CDE910441294BC
S315000003A002F09EFAEFF3108186F31088994B1A68D3
S315000003B0002A00F0A682974A13680133136081F37E
S315000003C010884FF000094FF0020A934E934CDFF865
S315000003D028824FF000033370914B2BA82B9304F027
S315000003E039F82BA90246814801F03AF9337833B936
S315000003F00121084602F09CFB3378002BF8D04FF021
S31500000400000340462B7000F0E5FF2B78002BFCD054
S315000004104FF00003404603A92B7000F0E7FF2B784E
S31500000420002BFCD0404604AA03A900F0E9FF30B136
S31500000430B0F5403F00F0EF81B9F1000FE8D0BDF90B
S3150000044010207849BDF912302BA803F029FF4FF090
S3150000045000032BA8337003F0FDFF2BA90246634867
S3150000046001F0FEF8337833B90121084602F060FB4B
S315000004703378002BF8D0BAF1020F00F0CF814FF09D
S3150000048000035E48237000F069FD2378002BFCD042
S315000004904FF47A71322002F04BFB4FF0000300223A
S315000004A0564813A9237000F05DFD2378002BFCD07D
S315000004B009AA13A9514800F059FD5B49099A2BA8CE
S315000004C003F0EEFE4FF000032BA8337003F0C2FFDB
S315000004D02BA90246454801F0C3F8337833B9012108
S315000004E0084602F025FB3378002BF8D0DFF80C9194
S315000004F04FF00003484606A9237000F073FD2378E9
S31500000500002BFCD09DF82030002BF1D04FF00003DB
S315000005103A4813A9237000F02DFD2378002BFCD058
S3150000052002AA13A9354800F029FD4049BDF8082064
S315000005302BA803F0B5FE4FF000032BA8337003F091
S3150000054089FF2BA90246294801F08AF8337833B986
S315000005500121084602F0ECFA3378002BF8D00EA9F8
S315000005602B4802F0A3F82A4802F08AF80123DFF8A4
S31500000570A0908DF80430484601A902F087F89DF84E
S315000005800430012BF7D00DF10A020121204802F0B8
S3150000059085F8BDF80A00264FC0F57F600F3002F0DF
S315000005A09BFD0DA3D3E9002302F02AFF0022214B75
S315000005B002F0FCFD02460B462BA81F49C7E90023A3
S315000005C003F06EFE4FF000032BA8337003F042FFDA
S315000005D034E000BFAFF300800000000000FEAF4033
S315000005E06B020020906600005C660000B8020020E6
S315000005F069020020E8660000E802002024030020CB
S315000006005800002068020020186500004C670000B2
S315000006107C030020E00300206C0200206A02002018
S315000006201B5B48002C6500008C6500009C65000083
S315000006306002002000005940B46500002BA9024664
S31500000640B54801F00DF8337833B90121084602F0B8
S315000006506FFA3378002BF8D0BDF80A20AF492BA8E3
S3150000066003F01EFE4FF000032BA8337003F0F2FEDA
S315000006702BA90246A84800F0F3FF337833B90121CD
S31500000680084602F055FA3378002BF8D0BAF1010F7C
S3150000069000F00081A24B1A6D920702D4BAF1020F44
S315000006A04CD0BDF914301D2B51DDBDF910303C2B5B
S315000006B04DDCEFF31082012383F31088994B1B68FE
S315000006C01BB940209849CB70C87096490B68013316
S315000006D00B6082F3108801230022DFF84492C9F8E8
S315000006E05420C9F83C21C9F86C30C9F81830D9F83B
S315000006F05430990710D5DFF860B2D9F8543013F0AA
S31500000700020FD9F818302CD123F0011323F44043FB
S3150000071043F00403C9F81830814A936923F00113A2
S3150000072023F4404343F0040393614FF47A7140F29B
S315000007304D1002F0FDF94FF001094AE61A6D9707D0
S31500000740FCD5BDF914304FF0010A1D2BADDC7749FD
S315000007500022D1E90001764B02F0A4FF0028E4D084
S31500000760A7E703EA0B0343F005034FF47A7140F25F
S315000007705740C9F8183002F0DBF94FF47A71D9F80E
S315000007801830084603EA0B0343F00403C9F818308F
S3150000079002F0CEF9D9F818304FF47A7103EA0B0358
S315000007A043F0050340F25740C9F8183002F0C0F98B
S315000007B04FF47A71D9F81830084603EA0B0343F070
S315000007C00403C9F8183002F0B3F9D9F854309A077F
S315000007D0A2D5D9F86C304FF47A7103EA0B0343F0D3
S315000007E005034FF4FA70C9F86C3002F0A1F9D9F894
S315000007F06C304FF47A7103EA0B0343F004034FF4B1
S31500000800FA70C9F86C3002F093F9D9F83C319B07BD
S315000008103FF573AFF9E74FF00009F9E50121454BC4
S31500000820504683F800A0444B197000F0A1F9BDF9B9
S315000008301220BDF91010414803F06CFC4049BDF987
S315000008401420BDF916302BA803F02AFD4FF0000343
S315000008502BA8337003F0FEFD2BA902462E4800F0AC
S31500000860FFFE337833B90121084602F061F9337887
S31500000870002BF8D002212F4B084619702E4B197009
S3150000088000F076F9BDF91620BDF914102D4803F0D5
S3150000089041FCF4E5284B274F5146504683F800A00B
S315000008A087F800A000F064F9099802F005FC18A387
S315000008B0D3E9002302F0A4FD0022234B02F076FCCC
S315000008C002460B4621492248C1E9002303F022FCD7
S315000008D00221194B5046197087F800A000F048F91C
S315000008E0124B1C48D3E9002303F014FC0C4A136D89
S315000008F099073FF526AF136D9807FCD54FF0020A0E
S31500000900CFE64020084BDA70D87054E5AFF300808C
S3150000091000000000004CCD40B8020020C865000071
S3150000092000080840E0030020000D08406002002097
S31500000930000044406902002068020020486500006B
S315000009405C6500007C6500000000594058020020EC
S31500000950D8650000FC650000FE3FFEFF022800D0BF
S3150000096070470249024801F011BA00BF70670000E3
S31500000970700200200379022B02D10122014B1A706A
S31500000980704700BF6C020020037913B90122014BA6
S315000009901A7070476B020020037913B90122014BCC
S315000009A01A7070476A020020F8B50546EFF3108208
S315000009B0012383F31088504F3B681BB940244F48EE
S315000009C0C370C4703B6801333B6082F310884C4CA3
S315000009D04C4ED4F8AC313340194341F00401C4F80D
S315000009E0AC110121D4F8A0310846334043F0050389
S315000009F0C4F8A031D4F84C21C5F300133240134398
S31500000A0043F00403C4F84C31E26FC5F3401332409F
S31500000A10134343F00403E367D4F85421C5F380136A
S31500000A203240134343F00403C4F85431D4F8503130
S31500000A30334043EAD51343F00403C4F8503102F0BF
S31500000A4077F80121D4F8A0310846334043F0040377
S31500000A50C4F8A03102F06CF80121D4F8A03105EAFF
S31500000A600102334043F00503C4F8A031D4F84C31F9
S31500000A7008463340134343F00403C4F84C31E26F95
S31500000A80C5F340033240134343F00403E367D4F84D
S31500000A905421C5F380033240134343F00403C4F8E2
S31500000AA05431D4F85031C5F3C00533401D4345F0E9
S31500000AB00405C4F8505102F03BF8D4F8A0310121E6
S31500000AC0334043F004032820C4F8A03102F030F884
S31500000AD0EFF31082012383F310883B6813B13B6860
S31500000AE0013B3B603B681BB980200449CB70C87052
S31500000AF082F31088F8BD00BFE0030020000D084017
S31500000B0000080840FE3FFEFF0121FFF74DBF00BF72
S31500000B1038B505460C4630200021FFF745FF012178
S31500000B2041F2680002F004F800213020FFF73CFF94
S31500000B3000212820FFF738FF00210820FFF734FFA7
S31500000B4000210120FFF730FF012141F2680001F08A
S31500000B50EFFF00210620FFF727FF44EA450040F09B
S31500000B600C000021BDE83840C0B2FFF71DBF00BF32
S31500000B700B46102828BF1020022B28BF022301385D
S31500000B80013B40EA831060F07F000021C0B2FFF70E
S31500000B900BBF00BF00210120FFF706BF08B5FFF716
S31500000BA0ABFB002008BD00BF06207047436A987E55
S31500000BB0831E032B16D8DFE803F011130F02103241
S31500000BC08B7848781B04097803F4702303EB002321
S31500000BD00B441360002070470C32F1E70432EFE754
S31500000BE00832EDE78B7891F801C01B0403F47023FB
S31500000BF003EB0C2391F800C0634413600028E9D18D
S31500000C00101D14324B7991F804C01B0403F47023B1
S31500000C1003EB0C2311F803CF634440F8043B9042E6
S31500000C20F0D1D7E70B880020138070470620704765
S31500000C3006207047062070471723426A037293798D
S31500000C4082B001916BB9BDF80430C3F30903D383B5
S31500000C500322190A817200F10801437202B000F002
S31500000C60D5B9BDF80630C3F30903F0E730B5012462
S31500000C704FF0230E02224477446A83B05FFA81FC68
S31500000C80C1F3072500F10801657184F80CC080F8EE
S31500000C9008E080F809C003B0BDE8304000F0B6B9FE
S31500000CA010B483B002AB03E906009DF800209DF85E
S31500000CB00430012A446A11D04FF0020C00219DF83D
S31500000CC003206377227703F00F0342F0010284F8D2
S31500000CD004C003B05DF8044B00F0FCBA2271002298
S31500000CE0BDF80110A372218141EA112141F00101F1
S31500000CF01B01C9B2DBB203B05DF8044B00F0EABADF
S31500000D00426A034612794FF0020C022A04BF0122FE
S31500000D10827740F2012284B003F812CF0193029148
S31500000D20ADF80C2004AB13E90E0004B000F02AB9AC
S31500000D300346406A84B0827642B1A2F1020CBCF14D
S31500000D40030F1BD94FF0030C042202E04FF00F0CE7
S31500000D5004220079029101284FF0010108BF98771B
S31500000D60184603F8122F01938DF80DC08DF80C105C
S31500000D7004AB13E90E0004B000F004B902EB420222
S31500000D8001324FF0030CD2B2E3E700BF436A1B798E
S31500000D900BB1012383770022114600F08BBA00BF06
S31500000DA0436AD97A93F807C0DA7E41EA0C0142F029
S31500000DB0010241F0010100F07DBA00BF232170B5A8
S31500000DC0436A01721B7B00F1080502222946437221
S31500000DD0044600F01BF900B170BD4FF0220C636AA7
S31500000DE084F808C05B7E022229462046637200F022
S31500000DF00DF90028F0D124230822666A237233698C
S31500000E002946C3F31303637223FA02FC1B0C84F80E
S31500000E100AC0E37273692046C3F31303A3811B0C54
S31500000E20A373337EE37300F0F1F80028D4D1636A2C
S31500000E302046597900F05EFA0028CDD11726636A5C
S31500000E402672DB8B0322C3F3090363721B0A29464E
S31500000E502046A37200F0DAF80028BDD1636A204666
S31500000E60997900F053FA0028B6D11923666A2372DD
S31500000E7096F8203096F8246002223343294620460D
S31500000E80637200F0C3F80028A6D11B26636A267297
S31500000E905B8C032263721B0A29462046A37200F06C
S31500000EA0B5F8002898D11A26636A267293F82A3074
S31500000EB0022229462046637200F0A8F800288BD14A
S31500000EC01D23666A237296F82C3096F82B6003F081
S31500000ED07F033343022229462046637200F096F8C8
S31500000EE000287FF479AF1E23666A2372F38C2946A5
S31500000EF063721B0AA372338D0522E3721B0A204616
S31500000F00237300F083F800287FF466AFD4E9093232
S31500000F106AB11A79012A14D0022A0AD0187100235C
S31500000F201A4619462046BDE8704000F0D3B91A713A
S31500000F30F5E71A7F5B7F014642F0010203F00F03DB
S31500000F40F0E71A7A597A9B7A11431B01024641F05F
S31500000F500101DBB2E6E700BF06207047436A1B6863
S31500000F605B681847436A1B68DB681847436A1B6857
S31500000F701B691847436A1B685B691847436A1B6805
S31500000F809B69184770B584B001AC84E80E00144B19
S31500000F90026805469A421CBF00230374036A9A68D6
S31500000FA01868166994E80E00B047064698B90C4BC7
S31500000FB02A689A420FD0652406E0013C01212846A2
S31500000FC0A4B200F0CDF94CB12B7C002BF5D06B7C94
S31500000FD0002B18BF1226304604B070BD1426FAE75F
S31500000FE021572A630346002240F2012C84B0416156
S31500000FF003F8122F00F108010193ADF80CC002911D
S3150000100004AB13E90E0004B0FFF7BCBF70B5134B79
S315000010100546006898421CBF00232B742B6A98680B
S31500001020C4681868A047064698B90C4B2A689A42C5
S315000010300FD0652406E0013C01212846A4B200F049
S315000010408FF944B12B7C002BF5D06B7C002B18BF9D
S315000010501226304670BD1426FBE700BF21572A63CF
S31500001060F0B504460D46D1E9020100236A682E69EF
S31500001070C4E90A01D5E90501C4E90C0123776361D6
S315000010806377A361A377936885B0C4E90826D2E99C
S3150000109000011B686560984788B9A36A1BB12046A2
S315000010A000F066F958B91522002304F108072281D9
S315000010B0394603222046A372FFF7A8FF08B105B000
S315000010C0F0BD48F215030222394620462381FFF778
S315000010D09DFF0028F3D10A21204600F041F900289F
S315000010E0EDD1234640F2012203F8120F0193029735
S315000010F0ADF80C2004AB204613E90E00FFF742FFC3
S315000011000028DCD13368294620461B68984700280A
S31500001110D5D1014B2360D2E721572A6330B5027936
S315000011200468131E18BF0123E06A87B08DF80830E3
S315000011305F4901902068884204D0012222746374BA
S3150000114007B030BD002A3AD16369002B3ED094F92E
S315000011500800217A0028B8BF01221A7011F0020295
S3150000116018BF012211F001015A7016BF01229970B1
S315000011709A7094F90910627A0029B4BF01210021FE
S31500001180D97012F0200118BF0121197112F0100157
S3150000119018BF0121597112F0040118BF012199717C
S315000011A012F0020118BF012112F0010218BF01223C
S315000011B0D9711A720022236B62611BB9C0E7236BD7
S315000011C0002BBDD001A8984707B030BDA369FBB17D
S315000011D0207A617A656A884228BF024695F82DC052
S315000011E038BF00F1200218704FF0000038BFD2B2AD
S315000011F05970521AD2B2A17ABCF1040F08BF02F09C
S31500001200FE029970DA70236BA061002BDAD197E7A2
S31500001210227F02F0FF011ABB637F03F0FF02002B5F
S3150000122031D1A37F002BCAD0234640F20121A277F9
S3150000123004F1080003F8122F04900393ADF814107C
S3150000124006AB204613E90E00FFF79CFE00283FF48C
S3150000125077AF0122236B8DF80820002BB2D16FE700
S31500001260626A237713792146032B04BF0123A377F0
S3150000127038230422204641F8083FFFF7C7FE00281E
S315000012803FF45EAFE5E74FF02E0C636A61775B795A
S31500001290022243F009032046637204F1080184F830
S315000012A008C0FFF7B3FE00283FF44AAFD1E700BFFE
S315000012B021572A6300B594464FF0150E417280F807
S315000012C008E080F80AC003225DF804EB00F108018B
S315000012D0FFF79CBE10B596462B244172047280F827
S315000012E00AE0C3720422BDE8104000F10801FFF7CE
S315000012F08DBE00BF4FF02E0C41F009014172022253
S3150000130080F808C000F10801FFF780BE4FF02F0CEF
S315000013104172022280F808C000F10801FFF776BE8C
S3150000132000B5036883B0596AD86A0A790090022A20
S3150000133010D0032A0CD0012A14BF012204225B6BB1
S315000013408DF804200BB16846984703B05DF804FB9E
S315000013500222F4E70A7F022A0CBF03220422EEE7E8
S3150000136008B508464FF47A7101F0E2FB002008BD8B
S3150000137070B5846A0546D4E9011320681B6898474E
S3150000138068B9A16803462A462068CD680449A8477B
S3150000139028B9A36820685B68BDE87040184770BD2F
S315000013A0211300004FF0000CD1E9003210B5416066
S315000013B0C968C0E902329A6804461268816180F8F9
S315000013C010C0D3E90001904708B9014B236010BD56
S315000013D032443E4300220146836810B402759C687D
S315000013E018681431E3685DF8044B1847836810B435
S315000013F09C6818680422A3685DF8044B184700BF70
S315000014000B783F2B42D8F0B54FF0000E44F274062D
S3150000141042F21073642491F803C00D8889780CF0A9
S31500001420FC0C4CEA012C4FEAAC0C06FB0CFC764695
S315000014306DBAADB203FB05F51648174FA0FB0C13AA
S31500001440A0FB05016D1A01EB5501490BA7FB0150E5
S31500001450ACEB030C03EB5C0340095B0B04FB1011C4
S31500001460A3F57A6387FB035760F30F0E61F31F4EF4
S31500001470D917C1EB671704FB1733304667F30F061E
S3150000148063F31F46C2F800E05660F0BD4FF44030EB
S31500001490704700BF110004001F85EB5100B50279AB
S315000014A00368003A18BF0122D868597C83B00090BF
S315000014B08DF8042029B101219974DA7403B05DF81E
S315000014C004FB9B69002BF9D06846984703B05DF88A
S315000014D004FB00BF034610B44C68074AC3E9001476
S315000014E08C6800209C60D1E90314DA60C3E90641E8
S315000014F05DF8044B704700BF21332C3203460022AF
S31500001500596810464A60DA60704700BF00F05AB862
S3150000151000F070B884B00DF1040C8CE80E009CE865
S315000015200E0004B000F07EB870B5046803796268F6
S31500001530E169023B82B0012B9268009116D8002522
S3150000154061698DF80450C1B1936810685E682269BC
S315000015502B46B047C4E9045530B10322A3698DF880
S3150000156004200BB16846984702B070BD93681068B6
S31500001570DB68984703238DF80430A369002BF1D16B
S3150000158002B070BD43685A68824217D070B59D6834
S315000015908368A96804460E691A7B99682868B0476B
S315000015A058B9A96862684E690346B4462868044972
S315000015B054602246BDE87040604770BD0020704709
S315000015C02915000043682DE9F04104460D461646EC
S315000015D09F68FFF7D7FF58B9C4E904000346B86807
S315000015E0324644682946A4463868BDE8F04160475B
S315000015F0BDE8F08143682DE9F04104460D461646E4
S315000016009F68FFF7BFFF58B9C4E904000346B868EE
S31500001610324684682946A4463868BDE8F0416047EA
S31500001620BDE8F08130B585B004AC04E90E0043682E
S3150000163004469D68FFF7A6FF80B9A968029A9DF83F
S315000016400D3028688D68C4E90432AC4601239DF844
S315000016500C20019905B0BDE83040604705B030BDAB
S3150000166010B4046AA37803F07B03A370837803F0B5
S315000016700303D21A0B440261A278C360837842F056
S31500001680800203F00303022BA27005D00B78002022
S31500001690E3705DF8044B70470B88002043F47E43EB
S315000016A0E3815DF8044B7047F0B5846A85B0054662
S315000016B00F4694466E46B4B194E80F0086E80F00D4
S315000016C0EB6920461B7884F804C02360EB6AC4E902
S315000016D002736B6A9847AC6A1CB196E80F0084E8FF
S315000016E00F0005B0F0BD3446EAE700BF2DE9F04132
S315000016F0002401260A78047002F5800202F58C5255
S315000017001202C0E907124A69034642628A69CD4D50
S31500001710C0E90A424A78A24214BF304602209A78AB
S3150000172060F301029A7091F90B0091F80AC0420920
S3150000173000F01F07203206FA07F745F82270BFF3BC
S315000017404F8FBFF36F8FC04A00F1C00752F827E0F2
S3150000175064F3104E42F827E052F82770BB4F4FEA69
S315000017600C1C05EB000E5FFA8CFC8EF800C347F8E4
S31500001770203091F9050091F804C04FEA501E00F0A0
S315000017801F080EF1200E06FA08F845F82E80BFF362
S315000017904F8FBFF36F8F00F1C00E52F82E8064F3A7
S315000017A0104842F82E8052F82EE04FEA0C1C05EB4A
S315000017B0000E5FFA8CFC8EF800C347F8203091F9D2
S315000017C0070091F806C04FEA501E00F01F080EF100
S315000017D0200E06FA08F845F82E80BFF34F8FBFF3A8
S315000017E06F8F00F1C00E52F82E8064F3104842F855
S315000017F02E8052F82EE04FEA0C1C05EB000E5FFA25
S315000018008CFC8EF800C347F8203091F9090091F856
S3150000181008C04FEA501E00F01F080EF1200E06FA0F
S3150000182008F845F82E80BFF34F8FBFF36F8F00F196
S31500001830C00E52F82E8064F3104842F82E8052F8FB
S315000018402E204FEA0C12D2B2054485F8002347F841
S315000018502030EFF3108786F310884FF000450878A4
S315000018607B4AC540506820EA05005060526887F3FD
S31500001870108840F2F9301A6A062594701471547271
S315000018809472D47254830C78E040C00744BF402061
S31500001890D07440F2F930CC6915770D788E78E8402F
S315000018A0C70748BF4FF478404D78C97848BF908243
S315000018B0C900032D41EA061100F0C080002D0CBFBF
S315000018C0E220F220C9B211709071217B08290EBF67
S315000018D00A21490001F0020151736178A078C9011B
S315000018E0400100F02000C9B20143002010722578A3
S315000018F0A81E012840F29980C9B2D1716168887822
S315000019004E785070107866F301001070C878097828
S315000019109074D07901F05C0100F0A3000143D1710D
S315000019200020D96918619861D860586191F90560FD
S31500001930454A06F1C00152F8217060F3104742F89B
S31500001940217052F82110BFF35F8F4FF0010E71091D
S31500001950890006F01F0601F1604101F561410EFAAA
S3150000196006F6C1F880610E60D96991F90B6006F13F
S31500001970C00152F8217060F3104742F8217052F806
S315000019802110BFF35F8F7109890006F01F0601F170
S3150000199060410EFA06F601F56141C1F880610E60FC
S315000019A0D96991F907C00CF1C00152F8216060F3C2
S315000019B0104642F8216052F82110BFF35F8F4FEABC
S315000019C05C1189000CF01F0C01F160410EFA0CF657
S315000019D001F56141C1F880610E60D96991F909107C
S315000019E001F1C00652F8267060F3104742F82670DF
S315000019F052F82620BFF35F8F4A09920001F01F01BB
S31500001A0002F160420EFA01F102F56142C2F880115C
S31500001A1011601A6A05F0030545F070056189957035
S31500001A200C4A19815A60BDE8F081FF20022D08BFDB
S31500001A3041F01001C9B25070D17171E7F22041F046
S31500001A4040013FE700E100E000600040E4030020C1
S31500001A50004008405549435310B4EFF30383103B4D
S31500001A60224A5BB203F1C00152F8210020F4803013
S31500001A7042F8210052F821201D4A52F82300C3697A
S31500001A801B69ABB1036913B15DF8044B7047026A79
S31500001A9000219378446A03F07F0343F004039370B4
S31500001AA0C160002CF0D080225DF8044BFFF7FCBD2E
S31500001AB00369026A002BEBD08178C46801F0030C3D
S31500001AC0BCF1020F0AD094F800C082F803C001F0FE
S31500001AD003029B1A1444C0E90343D4E7B4F800C0D8
S31500001AE04CF47E4CA2F80EC0F1E700BF0060004047
S31500001AF0E403002010B582B0EFF30383103B1F4AC6
S31500001B005BB203F1C00152F8210020F4803042F8A4
S31500001B10210052F821201A4A52F82340A27802F0F6
S31500001B200303022B236A0CBF198A5979A3690CBFD8
S31500001B30C1F30801C9B2019143B9636AB3B1042282
S31500001B40204602B0BDE81040FFF7AEBD02F003022A
S31500001B5001A9606902F071FCD4E90521A37803F0BC
S31500001B6003031A44C91AC4E9052109B102B010BD1C
S31500001B70636A002BFAD00122E2E700BF0060004052
S31500001B80E403002010B5EFF303830E4A103B5CB26A
S31500001B9052F82400D0E90821937803F07B03937070
S31500001BA019B102220021FFF77FFD074A04F1C003A5
S31500001BB052F8231021F4803142F8231052F82330D2
S31500001BC010BD00BFE40300200060004010B5EFF335
S31500001BD003831A4A103B5CB252F82400837803F060
S31500001BE00303022B036A0CBF198A597993F804C0C0
S31500001BF00CBFC1F30801C9B21CF0100F0CF038027B
S31500001C0006D093F81CC01CF0010F08BF42F040023A
S31500001C1093F804C00CF0C70C83F804C0436A0BB1F8
S31500001C20FFF742FD064A04F1C00352F8231021F4DF
S31500001C30803142F8231052F8233010BDE40300200F
S31500001C40006000402DE9F84F0388DBB180464FF075
S31500001C5000094FF0010BDFF884A000241E4D4FEA67
S31500001C60C907D8F8043035F8022BD919898891426A
S31500001C700AD00134032CF4D1B8F8003009F1010977
S31500001C804B45EAD8BDE8F88FDB590BFA04F603F0AA
S31500001C90B853B3F1807FF6B29AF8BB340ED0334214
S31500001CA0E7D0012001F010F89AF8BB34012023EAAE
S31500001CB006038AF8BB3400F0D7FFDAE73342D8D1FF
S31500001CC0012001F001F89AF8BB34012033438AF869
S31500001CD0BB3400F0C9FFCCE7186B000000E0014000
S31500001CE0F8B50446FFF7AEFFEFF31082012383F346
S31500001CF01088234F3B681BB92249CB704023CB7019
S31500001D003B6801333B6082F3108823882BB36168FC
S31500001D101D4C01EBC30E06E01B01083113448E4532
S31500001D2044F8230019D008688A88C5034FEA1223AD
S31500001D30D2B2F1D502EB031C54F82C601B0108311A
S31500001D4020F4803526F4803613448E4544F82C6002
S31500001D5044F82C5044F82300E5D1EFF31082012318
S31500001D6083F310883B6813B13B68013B3B603B68DB
S31500001D701BB980200349CB70C87082F31088F8BD68
S31500001D80E0030020000D08400008084008B5034B9A
S31500001D9003600846FFF7A4FF002008BD54524F50C9
S31500001DA00346002059601A72704700BF844600201F
S31500001DB0CCE90E32CCF83410704700BF0346044A13
S31500001DC0DB6800209B1AB3FA83F35B090B7070473C
S31500001DD04349495230B5836B83B004460A466D4683
S31500001DE0A3B193E8030085E80300E16B1A71184676
S31500001DF0626B19609047A36B1BB195E8030083E8FB
S31500001E000300002384F82B3003B030BD2B46ECE7EB
S31500001E1030B4324B82B01B6A01690193019B03F017
S31500001E200F230193019A019D0B7C90F82C4094B9E5
S31500001E30C2F30322DBB2A2EB156293409B0805D1E5
S31500001E40082002B030BC7047013BF9D04A78D2096D
S31500001E50FAD1B323CB71002390F82640026880F8AC
S31500001E60274080F82830846980F82B30036280F898
S31500001E702D3080F82E3080F82F3080F83030536ABD
S31500001E80C46193F800C05C78BCF1010F14BF042351
S31500001E90052343EA4403DBB2CB704B7943F00103DD
S31500001EA04B7192F90F30002B08DB012203F01F045F
S31500001EB00B495B09A24041F823200169BF23CB717E
S31500001EC090F82C3033B1002380F82C30002002B07B
S31500001ED030BC704702234B70F8E700BF00E00140BA
S31500001EE000E100E090F808C0C0E90512BCF1010F5E
S31500001EF080F82A3008D10022436880F826C05B00AB
S31500001F0080F8243080F82520002380F82930FFF758
S31500001F107FBF00BF90F808C0C0E90512BCF1010FF1
S31500001F2080F82A300AD10022436880F826C05B0078
S31500001F3043F0010380F8243080F82520012380F83F
S31500001F402930FFF765BF00BF2DE9F0434FF01F0CA6
S31500001F505F27DF260269DFF89C9182F800C01770C0
S31500001F60167006684FF0000E776AD6F804C03E7900
S31500001F704FF0B30846F0E0061674FE785A4C46F069
S31500001F80E0065674BE78594D360106F0700646F0E6
S31500001F90080696703E787F78012E14BF0426052623
S31500001FA0CC4514BF4FF0770C4FF0F70C46EA4706C6
S31500001FB0F6B2D67082F805C082F806E082F807808D
S31500001FC04E7B91F911203601494BA718F6B287F8D6
S31500001FD0006302F1C00645F8220053F826706EF33E
S31500001FE0104743F8267053F82660BFF35F8F4FF013
S31500001FF0010C5609B60002F01F0206F1604606F50E
S3150000200061460CFA02F2C6F8802132604E7B91F9E5
S315000020100F203601A718F6B287F8006302F1C00652
S3150000202045F8220053F826706EF3104743F82670E1
S3150000203053F82660BFF35F8F5609B60002F01F0201
S3150000204006F160460CFA02F206F56146C6F88021F2
S3150000205032604E7B91F910203601A718F6B287F848
S31500002060006302F1C00645F8220053F826706EF3AD
S31500002070104743F8267053F82660BFF35F8F560962
S31500002080B60002F01F0206F160460CFA02F206F5EF
S315000020906146C6F8802132604E7B91F90E203101EF
S315000020A01444C9B284F8001302F1C00145F82200B5
S315000020B053F821406EF3104443F8214053F8213081
S315000020C0BFF35F8F53099B0002F01F0203F16043C9
S315000020D00CFA02F203F56143C3F880211A609F22CD
S315000020E003691A70BDE8F08300E100E0E403002014
S315000020F00060004040420F0070B500250A7801607C
S3150000210002F5800202F51F62120202618A684260CD
S315000021100A7B0272CA6942630A6AC0E90E52EFF389
S31500002120108C012282F310880B78C3F109039A40C0
S315000021300C4B5E6826EA02025A605B688CF31088D4
S31500002140FFF702FF084B80F82950C0E9075580F8D1
S315000021502A50456180F82B50856180F82C50C36069
S31500002160284670BD004008404349495238B500250D
S3150000217003690168DD71FFF7E7FEB322836990F812
S3150000218026100362036980F8281080F82C50C56178
S3150000219080F82A502846DA7138BD00BF38B50025C8
S315000021A0044603690168DD71FFF7CEFEB320012303
S315000021B094F8262084F82C5084F82820A269E5613A
S315000021C02262226984F82A50D071D5712268E560AE
S315000021D092F911202549500902F01F0203FA02F272
S315000021E0203041F82020BFF34F8FBFF36F8F226856
S315000021F092F90E20500902F01F0203FA02F2203073
S3150000220041F82020BFF34F8FBFF36F8F226892F9FA
S315000022101020500902F01F0203FA02F2203041F8A2
S315000022202020BFF34F8FBFF36F8F226892F90F20E4
S31500002230500902F01F0203FA02F2203041F8202072
S31500002240BFF34F8FBFF36F8FEFF3108083F31088C8
S315000022502168074A0978C1F109018B4051680B438F
S315000022605360536880F31088284638BD00E100E0CB
S315000022700040084010B483B0EFF30383103B4A4A92
S315000022805BB2C03352F8231021F4803142F8231098
S3150000229052F82330EFF30383444A103B5BB252F803
S315000022A0233093F82D20BAB999691A69022903D8FF
S315000022B0117941F040011171D969012917D0012125
S315000022C0D27CD2B28DF807209DF8072083F82D1016
S315000022D003B05DF8044B7047DA69002AF8D0032A88
S315000022E00ED0022A4ED0012A21D019690DE01179AB
S315000022F041F010011171117941F008011171DEE709
S3150000230019690A7942F040020A71C87C1A6A596949
S315000023108854D3E907210131013AC3E90721002A8C
S31500002320D6D119690B7962F386130B71D0E793F84E
S315000023302A1089B319681E4C91F90F10480901F04B
S315000023401F0102FA01F1203044F82010BFF34F8F2D
S31500002350BFF36F8F4FF0040C1969C87940F0800005
S31500002360C871087940F010000871087920F008005B
S31500002370087181F801C0487920F00100487183F89E
S315000023802C20C2E719690A7942F010020A710A790B
S3150000239042F008020A71B8E7082019694A7A02F081
S315000023A0F7024A724870B0E700600040E40300207C
S315000023B000E100E010B4EFF30383103B374A5BB251
S315000023C0C03352F8231021F4803142F8231052F81A
S315000023D02330EFF30383324A103B5BB252F82310EB
S315000023E091F8273093BB91F8293063BBCB69086914
S315000023F0002B3ED1C379C02223F08003C37101E0D4
S31500002400013A02D0C379DB09FAD10B68234A93F962
S31500002410103003F1C00152F8214024F4803442F810
S31500002420214052F82120002B09DB01215A091D4CBD
S3150000243003F01F03603201FA03F344F82230C37934
S3150000244043F04003C3715DF8044B704791F82600D2
S3150000245091F82820032819D091F824400869013200
S31500002460013B847481F8282081F827305DF8044BFD
S3150000247070470A6A4C69013BA45C01328474C1E965
S315000024800732002BB6D05DF8044B7047022AE3D121
S3150000249091F830000028D6D0DEE700BF006000408B
S315000024A0E403002000E100E010B4EFF303832D4ABB
S315000024B0103B5BB252F8233093F829201AB193F8F7
S315000024C02720012A49D0DA69E2B11969CA79C023FD
S315000024D022F04002CA7101E0013B02D0CA795206DD
S315000024E0FAD4EFF30383103B1F4A5BB2C03352F8B2
S315000024F0231021F4803142F8231052F823305DF87E
S31500002500044B704793F82A10F9B14FF0010C196883
S31500002510164C91F90F10480901F01F0120300CFAF2
S3150000252001F144F82010BFF34F8FBFF36F8F196985
S31500002530C87940F08000C87104204870487962F379
S315000025400000487183F82CC0C0E7082219694B7A4D
S3150000255003F0F7034B724A70B8E793F83020002A6D
S31500002560B1D1B2E7E40300200060004000E100E0E2
S3150000257038B5EFF30383404A103B5BB252F82300B1
S3150000258003695A7A597AD50601F0E00159725FFA61
S3150000259082FC02F003012AD55A78540644D400245A
S315000025A00125016880F82B50DC71FFF7CDFCB322C2
S315000025B090F8263080F82C4080F82830C46180F8E6
S315000025C02A400369846929460462DA71FFF702FC2E
S315000025D0EFF30383103B294A5BB2C03352F8231052
S315000025E021F4803142F8231052F8233038BD0029F7
S315000025F0D5D11CF0080F0CD090F82B2062BBB3226B
S3150000260090F82910DA71C1F10301C9B2FFF7E2FBB4
S31500002610DEE790F82C20002ADAD01CF0040FD7D081
S3150000262090F82B2032BBEAE70029B8D15A78C2F3DA
S3150000263080115206DDD50824026880F82B10526AF4
S315000026405C701278012A14BF02220322DA705A79CA
S3150000265042F001025A71BBE70022B32190F82640EE
S3150000266080F82C2080F828408469C261046280F8D2
S315000026702A20D9710121C9E7E40300200060004047
S3150000268003461A689B8A00201380704703461B681E
S3150000269000201B88C3F3C0330B70704703461B68CA
S315000026A0103133F8113000201380704743682DE94C
S315000026B0F0430C684A685E6903688D681FFA84F8FF
S315000026C0A3F804801FFA82F8A3F8148022F0C04C05
S315000026D01FFA85F824F0C04E25F0C0472243A3F820
S315000026E008804FEA1C4C3F0C4FEA1E4812F0C04FC0
S315000026F0A3F80680A3F816C05F8153D1CF68002FD8
S3150000270000F0AF80B7F808C01CF4006F20D0D7E9FE
S315000027100052B7F80A80A3F890C0A3F89C80B7F8D7
S315000027200C80A3F89E801FFA85F8A3F89480C5F361
S315000027300B486D0FA3F8968083F8925095B2A3F8D4
S315000027409850C2F30B45520FA3F89A5083F8932082
S315000027501CF4007F1AD10A8AA3F890C0A3F880203F
S31500002760F2786AB1BEFA8EFE1A88818A92B222F097
S315000027701F021F32A2EB0E0292B211431A8081820F
S31500002780394BC0E903340020BDE8F083BA7CFD7CF8
S315000027902A4383F8A620FA89A3F8A8203A8AA3F840
S315000027A0AA20D8E741F23608304FD7F82090304FAC
S315000027B0C9F3026C3F68C9F3021907FA0CFC2D4FE6
S315000027C02CFA09FCA7FB0C7C4FEA9C1C08FB0CFCB2
S315000027D0294FA7FB0C7C4FEA9C4C0CF1010CBCF179
S315000027E0070F38BF4FF0070C12F0005722D0EFF357
S315000027F01085012383F31088204BDC6824F48004C1
S31500002800DC60DB6885F3108890251D4B0C681D7015
S3150000281003685FFA8CF714F0005F8D6883F8DE704A
S3150000282014BF4FF480774FF4806715F0005F18BF30
S3150000283047F0010752000ED5620048BF47F4007703
S315000028405FFA8CFC58BF47F400676A0083F8DFC064
S3150000285048BF47F00207BFB25F82CF68002F7FF400
S3150000286051AFBC4677E700BF4344415200E0014008
S3150000287070050020D34D621083DE1B4300400840E4
S3150000288000300F4010B400F1604C134C0901134B9B
S31500002890C9B20CF5614C8CF8001300F1C00144F884
S315000028A0202053F8212022F4803243F8212053F8C7
S315000028B02130BFF35F8F012243099B0000F01F0008
S315000028C003F1604303F561438240C3F880211A6037
S315000028D05DF8044B704700BFE40300200060004031
S315000028E02DE9F0410027CA680B884E6982610A69A2
S315000028F05B02C0E9077203F1804303F5B813036076
S315000029004160054648790C46F2788978030243EA25
S315000029104133002A60D043F43073022814BF0020EC
S3150000292033499BB208BF31F82200AB822279E178A5
S31500002930D20342EA4102717896F800C042EA411297
S31500002940EFF31088012181F31088B4F800E0294FD5
S31500002950CEF1100E01FA0EF1D7F80CE02EEA0101C5
S31500002960F960F96888F3108891B247F6FF52134070
S315000029702A6813801082D18182F80CC07379A3F182
S315000029800103B3FA83F35B0982F8D03094F90600A9
S31500002990002803DB2A46617AFFF774FF94F90700E3
S315000029A0002803DB2A46A17AFFF76CFF96F906009A
S315000029B0002803DB2A46317AFFF764FF96F9070001
S315000029C0002803DB2A46717AFFF75CFF00200A4BDA
S315000029D02861AB60BDE8F08130B943F4004343F0B1
S315000029E040039BB2AB82A1E743F0400395E700BFEB
S315000029F0406B00000040084043444152064B0749E3
S31500002A0093F826001A6A51F82030C2F3026204498C
S31500002A10D3400B60704700BF00E001401C0200205D
S31500002A20700500204AF2035001232A492A4A70B54C
S31500002A30A1F8FE03A2F80431B2F804319BB2002BD0
S31500002A40FAD101244FF4004524482549C0E903334F
S31500002A508560A2F80041234A8C600C600260224A1D
S31500002A6001F5B83191F8265042600A6A81F880442F
S31500002A7081F836301D4B436191F83C30DA07FBD5BF
S31500002A8042F211740023134A0C8581F82A3092F819
S31500002A903C309B06FBD505234FF0030E01244FF473
S31500002AA0254C13490C4E134D86F81CE1116282F831
S31500002AB0263092F82630116A50F82330C1F30261AD
S31500002AC0CB402B6082F8304082F85240A2F8FEC319
S31500002AD070BD00BF00E0014000C001401C020020A4
S31500002AE000700040002D310100127A0000C2EB0B8D
S31500002AF0211201207005002010B50024064B01208C
S31500002B0083F8284000F0E0F8044B012083F8BB442A
S31500002B10BDE8104000F0A8B80030084000E00140D1
S31500002B2000BEFEE7A0F101000028FBD1704700BF00
S31500002B304FF47A7310B400FB01F1114C114A24686A
S31500002B40B2FBF4F2A1FB03043CB9B0FBF2F080083F
S31500002B5060B15DF8044BFFF7E5BF9200B1FBF2F1FF
S31500002B60A1FB03132BB908460028F2D15DF8044BEC
S31500002B7070474FF0FF3C5DF8044B6046FFF7D2BF4D
S31500002B807005002000CA9A3B70B500240B4B0C4E12
S31500002B90B3F82021B3F84051ADB2154025FA04F33D
S31500002BA0DB0704D556F82430E0B203B19847013468
S31500002BB0102CF3D1014BA3F8305170BD00600040DA
S31500002BC0A003002030B5032085B000F07DF86FF03B
S31500002BD0FF054FF0FF31204C002322464FF0010E37
S31500002BE01E488564CDE90111039104F1C00532F850
S31500002BF0020F590960B104A800EB810151F80C0CD1
S31500002C0003F01F0C0EFA0CFC20EA0C0041F80C0C29
S31500002C10954203F10103EAD10199114B0F4A0320B2
S31500002C201167C3F8801202995167C3F88412039999
S31500002C309167C3F8881200F017F80023094834F8A2
S31500002C40022F03F1C00101330AB140F82120A54249
S31500002C50F5D105B030BD00BF026A0000008000401B
S31500002C6000E100E000600040EFF31081012383F3F0
S31500002C701088124B33F8102092B22AB133F8102084
S31500002C80013A92B223F8102033F810309BB293B970
S31500002C900B4A10B4B2F8FE330A4C9BB234F810005B
S31500002CA043F4254323EA0003A2F8FE3381F3108898
S31500002CB05DF8044B704781F3108870476405002067
S31500002CC000E001404C6B000030B4EFF310810123AB
S31500002CD083F310880E4A32F810309BB26BB90D4C54
S31500002CE00D4DB4F8FE3335F810C09BB243EA0C0321
S31500002CF043F425439BB2A4F8FE3332F81030013377
S31500002D009BB222F8103081F3108830BC704700BFA8
S31500002D106405002000E001404C6B00000C4A08B539
S31500002D200346106840B103330A4923F00303034402
S31500002D308B4205D8136008BD074908461160F2E7C3
S31500002D4001F064FB0C2203464FF0FF301A6008BD09
S31500002D506C050020C0160020C006002000BE70478B
S31500002D6008B500F003F8FDF719FFFEE74FF470020F
S31500002D7070B5254B254CC3F8882000209C60FDF7D4
S31500002D80EDFDFFF74FFE0120FDF7E8FD2368A3F5F3
S31500002D90806383F30A881E481E4A0021121A01F036
S31500002DA0E2FA1D481D4A1E49121A01F046FB1D4D46
S31500002DB01D4B5B1B002B07DD00249E1055F8043BC2
S31500002DC001349847A642F9DCFFF718FEFFF794FE98
S31500002DD00320FFF779FF00234FF6FF70134903F135
S31500002DE0080201330C2B21F81200F8D10320FFF75B
S31500002DF03BFF0220FDF7B2FDFFF7E4FEBDE87040A1
S31500002E00002000F015B800BF00ED00E00000000053
S31500002E1038020020C0060020000000201C0200200E
S31500002E20D06E00001402002018020020000D084099
S31500002E30704700BF81F0004102E000BF83F000430D
S31500002E4030B54FEA41044FEA430594EA050F08BF3F
S31500002E5090EA020F1FBF54EA000C55EA020C7FEA03
S31500002E60645C7FEA655C00F0E2804FEA5454D4EB80
S31500002E705555B8BF6D420CDD2C4480EA020281EA4A
S31500002E80030382EA000083EA010180EA020281EA82
S31500002E900303362D88BF30BD11F0004F4FEA0131D4
S31500002EA04FF4801C4CEA113102D0404261EB4101E3
S31500002EB013F0004F4FEA03334CEA133302D0524269
S31500002EC063EB430394EA050F00F0A780A4F1010425
S31500002ED0D5F1200E0DDB02FA0EFC22FA05F280185F
S31500002EE041F1000103FA0EF2801843FA05F3594145
S31500002EF00EE0A5F120050EF1200E012A03FA0EFCC4
S31500002F0028BF4CF0020C43FA05F3C01851EBE371ED
S31500002F1001F0004507D54FF0000EDCF1000C7EEB0A
S31500002F2000006EEB0101B1F5801F1BD3B1F5001F48
S31500002F300CD349085FEA30004FEA3C0C04F1010467
S31500002F404FEA445212F5800F80F09A80BCF1004F90
S31500002F5008BF5FEA500C50F1000041EB045141EA12
S31500002F60050130BD5FEA4C0C404141EB0101013CDB
S31500002F7028BFB1F5801FE9D291F0000F04BF0146CA
S31500002F800020B1FA81F308BF2033A3F10B03B3F19C
S31500002F9020020CDA0C3208DD02F1140CC2F10C022C
S31500002FA001FA0CF021FA02F10CE002F11402D8BF8A
S31500002FB0C2F1200C01FA02F120FA0CFCDCBF41EA56
S31500002FC00C019040E41AA2BF01EB0451294330BD25
S31500002FD06FEA04041F3C1CDA0C340EDC04F1140402
S31500002FE0C4F1200220FA04F001FA02F340EA0300D9
S31500002FF021FA04F345EA030130BDC4F10C04C4F11F
S31500003000200220FA02F001FA04F340EA03002946FE
S3150000301030BD21FA04F0294630BD94F0000F83F448
S31500003020801306BF81F480110134013D4EE77FEA2B
S31500003030645C18BF7FEA655C29D094EA050F08BF77
S3150000304090EA020F05D054EA000C04BF1946104658
S3150000305030BD91EA030F1EBF0021002030BD5FEA9C
S31500003060545C05D14000494128BF41F0004130BDC4
S3150000307014F580043CBF01F5801130BD01F0004518
S3150000308045F0FE4141F470014FF0000030BD7FEA8B
S31500003090645C1ABF194610467FEA655C1CBF0B4686
S315000030A0024650EA013406BF52EA033591EA030F9D
S315000030B041F4002130BD00BF90F0000F04BF002195
S315000030C0704730B54FF4806404F132044FF00005C8
S315000030D04FF0000150E700BF90F0000F04BF002141
S315000030E0704730B54FF4806404F1320410F00045A7
S315000030F048BF40424FF000013EE700BF42004FEAA2
S31500003100E2014FEA31014FEA02701FBF12F07F431E
S3150000311093F07F4F81F06051704732F07F4208BFD5
S31500003120704793F07F4F04BF41F40021704730B5DC
S315000031304FF4607401F0004521F000411CE700BF28
S3150000314050EA010208BF704730B54FF000050AE0AB
S3150000315050EA010208BF704730B511F0004502D5AC
S31500003160404261EB41014FF4806404F132045FEAAE
S31500003170915C3FF4D8AE4FF003025FEADC0C18BF57
S3150000318003325FEADC0C18BF033202EBDC02C2F149
S31500003190200300FA03FC20FA02F001FA03FE40EADB
S315000031A00E0021FA02F11444BDE600BF70B54FF0DF
S315000031B0FF0C4CF4E06C1CEA11541DBF1CEA1355BD
S315000031C094EA0C0F95EA0C0F00F0DEF82C4481EA25
S315000031D0030621EA4C5123EA4C5350EA013518BF45
S315000031E052EA033541F4801143F4801338D0A0FB32
S315000031F002CE4FF00005E1FB02E506F00042E0FBDF
S3150000320003E54FF00006E1FB03569CF0000F18BFE4
S315000032104EF0010EA4F1FF04B6F5007F64F540748C
S3150000322004D25FEA4E0E6D4146EB060642EAC6211F
S3150000323041EA55514FEAC52040EA5E504FEACE2E8C
S31500003240B4F1FD0C88BFBCF5E06F1ED8BEF1004F8F
S3150000325008BF5FEA500E50F1000041EB045170BD0B
S3150000326006F0004646EA010140EA020081EA03014F
S31500003270B4EB5C04C2BFD4EB0C0541EA045170BD4B
S3150000328041F480114FF0000E013C00F3AB8014F1C5
S31500003290360FDEBF002001F0004170BDC4F100040E
S315000032A0203C35DA0C341BDC04F11404C4F120058F
S315000032B000FA05F320FA04F001FA05F240EA0200EA
S315000032C001F0004221F0004110EBD37021FA04F620
S315000032D042EB06015EEA430E08BF20EAD37070BDDA
S315000032E0C4F10C04C4F1200500FA04F320FA05F039
S315000032F001FA04F240EA020001F0004110EBD3703B
S3150000330041F100015EEA430E08BF20EAD37070BDAA
S31500003310C4F1200500FA05F24EEA020E20FA04F383
S3150000332001FA05F243EA020321FA04F001F0004132
S3150000333021FA04F220EA020000EBD3705EEA430EA3
S3150000334008BF20EAD37070BD94F0000F0FD101F0D2
S315000033500046400041EB010111F4801F08BF013C0B
S31500003360F7D041EA060195F0000F18BF704703F049
S315000033700046520043EB030313F4801F08BF013DD0
S31500003380F7D043EA0603704794EA0C0F0CEA13558C
S3150000339018BF95EA0C0F0CD050EA410618BF52EA46
S315000033A04306D1D181EA030101F000414FF000004C
S315000033B070BD50EA410606BF1046194652EA43065A
S315000033C019D094EA0C0F02D150EA013613D195EACE
S315000033D00C0F05D152EA03361CBF104619460AD116
S315000033E081EA030101F0004141F0FE4141F4700120
S315000033F04FF0000070BD41F0FE4141F4780170BD10
S3150000340070B54FF0FF0C4CF4E06C1CEA11541DBF74
S315000034101CEA135594EA0C0F95EA0C0F00F0A7F876
S31500003420A4EB050481EA030E52EA03354FEA0131A3
S3150000343000F088804FEA03334FF0805545EA1313B6
S3150000344043EA12634FEA022245EA111545EA10657E
S315000034504FEA00260EF000419D4208BF964244F115
S31500003460FD0404F5407402D25B084FEA3202B61A34
S3150000347065EB03055B084FEA32024FF480104FF408
S31500003480002CB6EB020E75EB030E22BFB61A75467C
S3150000349040EA0C005B084FEA3202B6EB020E75EB0F
S315000034A0030E22BFB61A754640EA5C005B084FEA77
S315000034B03202B6EB020E75EB030E22BFB61A754644
S315000034C040EA9C005B084FEA3202B6EB020E75EB4F
S315000034D0030E22BFB61A754640EADC0055EA060E10
S315000034E018D04FEA051545EA16754FEA06164FEA53
S315000034F0C30343EA52734FEAC2025FEA1C1CC0D1FF
S3150000350011F4801F0BD141EA00014FF000004FF08B
S31500003510004CB6E711F4801F04BF01430020B4F14C
S31500003520FD0C88BFBCF5E06F3FF6AFAEB5EB030C04
S3150000353004BFB6EB020C5FEA500C50F1000041EB01
S31500003540045170BD0EF0004E4EEA113114EB5C04CE
S31500003550C2BFD4EB0C0541EA045170BD41F48011A1
S315000035604FF0000E013C90E645EA060E8DE60CEAA9
S31500003570135594EA0C0F08BF95EA0C0F3FF43BAFC6
S3150000358094EA0C0F0AD150EA01347FF434AF95EA7D
S315000035900C0F7FF425AF104619462CE795EA0C0F61
S315000035A006D152EA03353FF4FDAE1046194622E72E
S315000035B050EA410618BF52EA43067FF4C5AE50EA08
S315000035C041047FF40DAF52EA43057FF4EBAE12E7F8
S315000035D04FF0FF3C06E000BF4FF0010C02E000BFD9
S315000035E04FF0010C4DF804CD4FEA410C7FEA6C5CBC
S315000035F04FEA430C18BF7FEA6C5C1BD001B050EA5F
S31500003600410C0CBF52EA430C91EA030F02BF90EA49
S31500003610020F0020704710F1000F91EA030F58BF08
S31500003620994208BF90422CBFD8176FEAE37040F06A
S31500003630010070474FEA410C7FEA6C5C02D150EA08
S31500003640013C07D14FEA430C7FEA6C5CD6D152EAC3
S31500003650033CD3D05DF8040B704700BF8446104688
S3150000366062468C461946634600E000BF01B5FFF787
S31500003670B7FF002848BF10F1000F01BD4DF808ED57
S31500003680FFF7F4FF0CBF012000205DF808FB00BF28
S315000036904DF808EDFFF7EAFF34BF012000205DF882
S315000036A008FB00BF4DF808EDFFF7E0FF94BF0120CF
S315000036B000205DF808FB00BF4DF808EDFFF7CEFFD0
S315000036C094BF012000205DF808FB00BF4DF808ED0F
S315000036D0FFF7C4FF34BF012000205DF808FB00BFE0
S315000036E02DE9FF4757EC106B002F0C4619463B4659
S315000036F0B4BF07F1004300239146BFBF32461F46C1
S315000037002D231646DDF830A00B700D9B23F0200804
S31500003710B8F1460F05D0B8F1450F00D101340221AA
S3150000372000E0032103AB2246019302AB47EC106B8A
S315000037300093534600F024FFB8F1470F054619D110
S3150000374019F0010F0ED000EB0409002200233046C9
S315000037503946FFF793FF08B1CDF80C903022039B52
S315000037604B451ED3039B28460E9A5B1B136004B081
S31500003770BDE8F087B8F1460F00EB0409E5D1037800
S31500003780302B0AD10022002330463946FFF776FF58
S3150000379018B9C4F10104CAF80040DAF800309944B7
S315000037A0D3E7591C03911A70D9E7F7B500290270BF
S315000037B0BABF49422D232B230929437028DD0DF179
S315000037C007030A271D461A46013BB1FBF7F607FB1E
S315000037D01614303402F8014C0C463146632CF2DCE8
S315000037E03031941E03F8011C411C2346AB420AD318
S315000037F00DF109039B1AAC4288BF00230233034430
S31500003800181A03B0F0BD13F8016B01F8016FEDE76C
S31500003810302330318370031DC170F1E72DE9F04F7D
S315000038208DB00C4616461F46DDF85880054600F05A
S31500003830A3FD03681846049300F00CFE00230590D0
S315000038400A93D8F8003094F818A00733D4F800B0DB
S3150000385023F0070303F10802C8F800204FF0FF32F7
S31500003860D3E9008929F00043CDF8188007939D4BD2
S31500003870DDE90601C4E9128902F0B4FD70BB4FF020
S31500003880FF32984BDDE90601FFF70CFF30BB002243
S31500003890002340464946FFF7FBFE10B12D2384F86E
S315000038A04330914A914BBAF1470F8CBF90469846E8
S315000038B003234FF0000923612BF0040323603346F2
S315000038C00BAA21462846009700F0D2F9013040F0B5
S315000038D08D804FF0FF300DB0BDE8F08F42464B466D
S315000038E04046494602F07EFD40B14B46804A002BD9
S315000038F0BCBF2D2384F843307E4BD4E70AF0DF02A9
S31500003900636806925A1C3BD1062363604BF48062BF
S3150000391000232846226003930AABCDE901A309AB35
S3150000392049EC108B00930DF123036168FFF7D8FE75
S31500003930069B80460999472B29D1C81C02DB636880
S31500003940994241DDAAF1020A5FFA8AFA0139524622
S3150000395004F150000991FFF728FF0A9A81461318CF
S31500003960012A236102DC2268D20701D501332361D3
S315000039709DF82330002BA2D02D2384F843309EE7F8
S31500003980069A472AC2D1002BC0D10123BDE7BAF15E
S31500003990650FDBD9BAF1660F18D1002963680BDD14
S315000039A0216113B92268D00702D501330B44236184
S315000039B04FF00009A165DBE713B92268D20701D5EC
S315000039C00233F4E70123F2E74FF0670A0A9B9942B4
S315000039D005DB23682161D807EAD54B1CE7E70029F8
S315000039E0D4BFC1F1020201221344E0E723685A055D
S315000039F007D42369424631462846B84701302BD1C1
S31500003A0067E7BAF1650F40F2DD8000220023D4E9B2
S31500003A101201FFF733FE002833D00123364A314620
S31500003A202846B84701303FF454AFDDE9093843452D
S31500003A3002DB2368D8070FD531462846DDE9042383
S31500003A40B84701303FF445AF4FF0000908F1FF38A1
S31500003A5004F11A0AC84509DC23689B0700F10381B3
S31500003A60E0680B9B9842B8BF184634E701235246DC
S31500003A7031462846B84701303FF42BAF09F101091A
S31500003A80E8E7099B002B39DC01231B4A314628460F
S31500003A90B84701303FF41DAFDDE9093959EA0303A0
S31500003AA002D12368D907D7D531462846DDE9042354
S31500003AB0B84701303FF40DAF4FF0000A04F11A0B7E
S31500003AC0099B5B42534501DC4B4693E701235A466B
S31500003AD031462846B84701303FF4FBAE0AF1010AE9
S31500003AE0EEE700BFFFFFEF7F6C6B0000686B000026
S31500003AF0746B0000706B0000786B0000A36DDDF83E
S31500003B0028A05345A8BF5346002B994636DC4FF0F4
S31500003B10000B29EAE97904F11A02A36D0693A3EBD7
S31500003B2009035B4531DC099B9A453ADC2368DA07D1
S31500003B3037D4099BAAEB0309069BAAEB0303994515
S31500003B40A8BF9946B9F1000F33DC4FF0000829EA07
S31500003B50E97904F11A0B099BAAEB0303A3EB09030A
S31500003B6043457FF779AF01235A4631462846B84781
S31500003B7001303FF4AEAE08F10108ECE742463146AB
S31500003B802846B8470130C2D1A3E60123314628466C
S31500003B900692B84701303FF49CAE0BF1010B069A32
S31500003BA0BBE7DDE9042331462846B8470130C0D1DA
S31500003BB08FE6069A4B46314628464244B8470130BE
S31500003BC0C3D186E6DDF828A0BAF1010F01DCDB07D8
S31500003BD036D50123424631462846B84701303FF4E0
S31500003BE078AE31462846DDE90423B84701303FF474
S31500003BF070AE002200230AF1FF3AD4E91201FFF762
S31500003C003DFDC0B9534608F1010231462846B84782
S31500003C1001300CD15DE601235A4631462846B847A5
S31500003C2001303FF456AE08F10108D045F3DB4B46B0
S31500003C3004F15002DFE64FF0000804F11A0BF4E736
S31500003C4001234246E1E701234A4631462846B84762
S31500003C5001303FF43EAE08F10108E3680B995B1AA8
S31500003C604345F0DCFCE64FF0000804F11909F4E7DF
S31500003C702DE9F047164698468A6807460B690C46B2
S31500003C80DDF820909342B8BF1346336091F8432085
S31500003C900AB1013333602368990642BF33680233A1
S31500003CA03360256815F0060506D104F1190AE368A4
S31500003CB032689B1AAB422BDC94F843302268003BF7
S31500003CC018BF0123920630D404F143024146384618
S31500003CD0C847013023D023681A3454F80A2C03F05D
S31500003CE00603042B0ABF54F80E5C002533684FF018
S31500003CF0000608BFED1A54F8123C08BF25EAE57520
S31500003D009342C4BF9B1AED18B5421AD1002008E0B1
S31500003D100123524641463846C847013003D14FF089
S31500003D20FF30BDE8F0870135C1E7E1185A1C3020A5
S31500003D300233224481F8430094F8451082F8431078
S31500003D40C2E70123224641463846C8470130E6D03D
S31500003D500136D9E72DE9FF470F7E914680460C468E
S31500003D60782F9A460C9E01F1430207D8622F0AD893
S31500003D70002F00F0D180582F00F0B88004F14206E1
S31500003D8084F842703AE0A7F16303152BF6D801A137
S31500003D9051F823F0ED3D0000013E00007D3D00009E
S31500003DA07D3D00007D3D00007D3D0000013E0000A0
S31500003DB07D3D00007D3D00007D3D00007D3D000015
S31500003DC0FF3E00002B3E0000B93E00007D3D000096
S31500003DD07D3D0000213F00007D3D00002B3E0000A0
S31500003DE07D3D00007D3D0000C13E000033681A1D88
S31500003DF01B68326004F1420684F8423001239CE0DD
S31500003E0033682068191D3160060601D51D6803E078
S31500003E104506FBD5B3F90050002D03DA2D236D427C
S31500003E2084F8433058480A2311E0216833680806AD
S31500003E3053F8045B02D4490648BFADB26F2F336016
S31500003E40514814BF0A230823002184F843106668EA
S31500003E50002EA66005DB21682E4321F004012160B7
S31500003E604BD01646B5FBF3F103FB1157C75D06F8B9
S31500003E70017D2F460D46BB42F4D9082B0BD1236892
S31500003E80DF0708D5236961689942DEBF302306F84B
S31500003E90013C06F1FF36921B22614B4603AA2146DE
S31500003EA04046CDF800A0FFF7E3FE01304AD14FF0BF
S31500003EB0FF3004B0BDE8F087236843F02003236099
S31500003EC078273248236884F845701F06316851F810
S31500003ED0045B02D45F0648BFADB23160D90744BF68
S31500003EE043F0200323601DB11023ADE72648E9E720
S31500003EF0236823F020032360F6E71646BDE7336800
S31500003F002568181D616930602E061B6801D5196089
S31500003F1002E06806FBD51980002316462361BCE73C
S31500003F20336800211A1D32601E686268304600F050
S31500003F3076FA08B1801B606063682361002384F809
S31500003F404330AAE72369324649464046D047013006
S31500003F50ADD023689B0713D4E068039B9842B8BF93
S31500003F601846A6E70123324649464046D047013067
S31500003F709DD00135E36803995B1AAB42F2DCEBE7AF
S31500003F80002504F11906F5E77A6B00008B6B00003B
S31500003F90002310B504468360818119464366C281B9
S31500003FA008228361C0E90033C0E904335C3000F0C5
S31500003FB0DAF90D4B246263620C4BA3620C4BE3628D
S31500003FC00C4B23630C4B9C4206D003F168029442CF
S31500003FD002D0D0339C4205D104F15800BDE8104010
S31500003FE000F01ABA10BD00BFE14200000343000012
S31500003FF03B4300005F43000074050020024A03496A
S31500004000034800F069B800BF4C0000203D60000086
S315000040105C00002041680C4B994210B5044601D063
S3150000402002F00CF8A168094B994202D0204602F032
S3150000403005F8E168064B994204D02046BDE81040D9
S3150000404001F0FCBF10BD00BF74050020DC05002098
S315000040504406002010B50B4B04210B4C0B4A20469E
S315000040601A600022FFF794FF04F16800012209217B
S31500004070FFF78EFF04F1D00002221221BDE81040A6
S31500004080FFF786BFAC06002074050020FD3F000048
S31500004090014800F0C2B900BFB5060020014800F093
S315000040A0BDB900BFB506002010B50446FFF7F0FF06
S315000040B0236A1BB1BDE81040FFF7F0BF044B236233
S315000040C0044B1B68002BF5D1FFF7C4FFF2E700BFD6
S315000040D015400000AC0600202DE9F8430746884647
S315000040E014460026D4E90195B9F1010905D52468DD
S315000040F0002CF7D13046BDE8F883AB89012B07D9F0
S31500004100B5F90E30013303D029463846C047064379
S315000041106835E9E70FB407B5064904AB086853F8F4
S31500004120042B8168019301F0EDFD03B05DF804EB0B
S3150000413004B07047580000202DE9F7431D46574B41
S3150000414004460E461F68904627B13B6A13B93846A7
S31500004150FFF7AAFFB8F1020F06D0B8F1010F00F27F
S315000041609980002DC0F29680636ED90705D4A38985
S315000041709A0502D4A06D00F050F92146384601F0A8
S315000041805DFF616B41B104F14403994202D03846A8
S3150000419000F0B4FF002363630023A3616360A38977
S315000041A01B0603D52169384600F0A8FFA389B8F19C
S315000041B0020F23F44A6323F00303A38160D001AB0B
S315000041C06A462146384601F061FFA3891843A0815B
S315000041D02DBB009D284600F0DBFF0646002851D186
S315000041E0DDF80090A9453FD14FF0FF35B4F90C300A
S315000041F043F00202A2810022A26004F1470222607B
S31500004200226101226261626ED60704D4980502D447
S31500004210A06D00F003F9284603B0BDE8F083002E38
S31500004220D8D03B6A13B93846FFF73EFFB8F1010F05
S31500004230266002BFA38943F00103A381B4F90C30C1
S3150000424013F00802C4E904651ED0D90745BF002251
S315000042506D42A560A26048BFA561626ED20701D417
S315000042609B0513D50025D6E7484600F091FF064684
S315000042700028B9D0A3894D4643F08003A381D0E737
S315000042800025B3E7A946F5E7A260E6E7A06D00F0D2
S31500004290C5F8E7E74FF0FF35BDE700BF580000203F
S315000042A00EB400B59CB06FF000411DAB02900690B5
S315000042B0079104910848094953F8042B059102A96E
S315000042C00068019301F0F8FB029B00221A701CB0F3
S315000042D05DF804EB03B07047580000200802FFFFAA
S315000042E010B50C46B1F90E1000F06CF80028ABBF03
S315000042F0636DA3891B1823F48053ACBF6365A38148
S3150000430010BD2DE9F0411F468B8905460C46DB059D
S31500004310164605D502230022B1F90E1000F040F82A
S31500004320A3893246B4F90E10284623F48053A3819C
S315000043303B46BDE8F04100F057B810B50C46B1F960
S315000043400E1000F02DF8431CA38915BF606523F4F9
S31500004350805343F48053A38118BFA38110BDB1F9E4
S315000043600E1000F00DB802440346934200D1704788
S3150000437003F8011BF9E7FFFF00487047980100208A
S3150000438038B50023054D044608462B6002F068F850
S31500004390431C02D12B6803B1236038BDB006002050
S315000043A038B50446064D0846114600222A601A46CC
S315000043B002F06EF8431C02D12B6803B1236038BDAE
S315000043C0B006002038B50446064D084611460022C0
S315000043D02A601A4602F064F8431C02D12B6803B126
S315000043E0236038BDB006002038B50446064D0846A1
S315000043F0114600222A601A46FBF74AFF431C02D1E7
S315000044002B6803B1236038BDB0060020014B186845
S31500004410704700BF58000020704770477047C9B208
S315000044200346024410B59342184601D1002003E02A
S31500004430047801338C42F6D110BD0A44431E9142E2
S3150000444000D1704710B511F8014B914203F8014FA6
S31500004450F9D110BD034613F8012B002AFBD1181A17
S31500004460013870472DE9F74F036907460C69A342E7
S31500004470C0F28380013C00F1140501F11408A30089
S3150000448055F8242008EB8409009305EB8403019377
S3150000449058F8243001339A42B2FBF3F631D34FF089
S315000044A0000AC446AE46D3465CF8043B98B2E145E2
S315000044B04FEA134306FB00A04FEA104280B206FB08
S315000044C00323DEF8002092B24FEA134AA2EB000261
S315000044D09BB2DEF800005A44C3EB224392B203EBD0
S315000044E0104342EA03424FEA234B4EF8042BDBD239
S315000044F0009BEB582BB9019B043B9D421A4630D3D7
S315000045003C61384601F070F9002826DB2946002078
S3150000451058F8042BD1F800C01FFA82FEC1451FFAD5
S315000045208CF34FEA1242A3EB0E030344C2EB234281
S315000045309BB202EB1C4243EA02434FEA224041F897
S31500004540043BE5D255F8242005EB840322B9043B4D
S315000045509D421A460BD33C610136304603B0BDE896
S31500004560F08F1268043B002ACAD1013CC5E71268E5
S31500004570043B002AEFD1013CEAE70020EEE7FFFF0B
S315000045802DE9F04FC76999B08346229E09910E9294
S31500004590139355EC104B8DED040B7FB9102000F0F2
S315000045A0F7FD0246CBF81C0020B9A74BEF21A74820
S315000045B0FEF7B6FAC0E901770760C760DBF81C3082
S315000045C0196859B15A680123584693404A608B606E
S315000045D000F0D4FEDBF81C3000221A602B1EB7BF99
S315000045E023F00043002301220593A8BF3360059FF3
S315000045F0974BB8BF3260BB4312D142F20F73139A86
S315000046001360C7F31303234300F04685239BDFF8AB
S3150000461054A2002B00F048850AF1030300F042BDC6
S315000046209DED047B0022002351EC170B8DED0C7BD6
S31500004630FFF724F8804658B10123139A1360239B91
S3150000464013B1844B239A1360DFF81CA200F02CBD33
S31500004650C7F30A5616AA17A958469DED0C0B01F08A
S3150000466077F98146002E75D00D9BA6F2FF36CDF860
S315000046705080C3F3130343F07F53DDE90C0143F489
S31500004680401319460022744BFEF7D8FB68A3D3E902
S315000046900023FEF78BFD68A3D3E90023FEF7D0FBCA
S315000046A004460D463046FEF717FD65A3D3E9002301
S315000046B0FEF77CFD02460B4620462946FEF7C0FB68
S315000046C004460D4601F0A4FE0022074600232046BC
S315000046D02946FEF7DDFF40B13846FEF7FDFC2246CF
S315000046E02B46FEF7CBFF00B9013F162F51D85B4B87
S315000046F003EBC703DDE90C01D3E90023FEF7C8FF8E
S31500004700002848D0013F00231293169B9B1B5A1E7C
S3150000471046BFC3F1010800234FF00008089248BFC6
S315000047200893002F39DB089B0F973B44089300231F
S315000047300A93099B092B61D8052BC5BF043B0024AE
S3150000474001240993099B023B032B63D8DFE803F09E
S315000047505254372CDDE916631E4406F23243202BF1
S31500004760C9BFC3F14003C3F120039F4006F21243C1
S31500004770D8BF04FA03F006F1FF36C4BF24FA03F3E8
S3150000478047EA0300FEF798FC0122A1F1F8731492A0
S3150000479077E70123B8E71290B7E77B42A8EB070853
S315000047A00A9300230F93C4E701230B930E9BFB1878
S315000047B000930133012B0393B8BF012306E00123C5
S315000047C00B930E9B002B28DD00930393DBF81C0054
S315000047D00021042202F114059D4223D94160584666
S315000047E000F08CFD8246002840D11D4B024640F267
S315000047F0AF11DCE60023E3E70023D6E7012400231C
S315000048000B9409934FF0FF33002200930393122376
S315000048100E92DBE701230B93F4E701231A4600937C
S315000048200393F5E701315200D4E700BFAFF30080F0
S3150000483061436F63A787D23FB3C8608B288AC63FA0
S31500004840FB799F501344D33FA96B0000C06B000057
S315000048500000F07F796B00000000F83FD86C000084
S31500004860196C0000A56B0000786B0000DBF81C30AB
S315000048701860039B0E2B00F2A180002C00F09E8096
S31500004880002F33DD07F00F029B4BF8054FEA271484
S3150000489003EBC20393ED007B8DED067B16D5974B9C
S315000048A004F00F040326D3E90823DDE90C01FEF723
S315000048B0A7FDCDE90401914D54B9DDE90623DDE9F3
S315000048C00401FEF79DFDCDE9040128E00226F2E78A
S315000048D0E10708D50136DDE90601D5E90023FEF733
S315000048E065FCCDE9060164100835E5E700F0AF8008
S315000048F07C42814B814D022604F00F02241103EB0A
S31500004900C203DDE90C01D3E90023FEF74FFC0023C7
S31500004910CDE90401002C40F08F80002BD3D1129BEF
S31500004920DDE90445002B00F094800022744B2046FC
S315000049302946FEF7ADFE002800F08B80039B002B76
S3150000494000F08780009B002B34DD7B1E2046002272
S315000049502946069301366B4BFEF728FC009CCDE9F1
S3150000496004013046FEF7B8FBDDE90423FEF71EFC22
S315000049700022654BFEF764FA0546A1F15076002C3D
S315000049806AD10022614BDDE90401FEF757FA0246BF
S315000049900B46CDE904232A463346FEF797FE002848
S315000049A040F087822A4606F10043DDE90401FEF75E
S315000049B06FFE38BBDDE90C34CDE90434179B002BC0
S315000049C0C0F258810E2F00F355814B4B03EBC70302
S315000049D093ED007B0E9B002B8DED007B80F2E58036
S315000049E0039B002B00F3E1800CD10022474B51ECD6
S315000049F0170BFEF7DBFBDDE90423FEF75DFE00285F
S31500004A0000F05582002425460E9B5646DB4306934E
S31500004A1000272146584600F0B1FC002D00F0BD806D
S31500004A202FB1AF4203D03946584600F0A7FC2946BD
S31500004A30584600F0A3FCB0E0E20705D50136D5E9FB
S31500004A400023FEF7B3FB01236410083562E7022654
S31500004A5065E7039C069784E7274B0B9903EBC40392
S31500004A60544453E90223002954D000202849FEF774
S31500004A70C7FC334656462A46FEF7E0F9CDE9100153
S31500004A80DDE9040101F0C4FC0546FEF725FB0246FC
S31500004A900B463035DDE90401FEF7D0F902460B4638
S31500004AA006F8015BCDE90423DDE91023FEF7F0FDEE
S31500004AB0002872D100201249DDE90423FEF7BEF971
S31500004AC0DDE91023FEF7E4FD002840F0B480A6429D
S31500004AD03FF470AF00220B4BDDE91001FEF766FBD9
S31500004AE00022084BCDE91001DDE90401FEF75EFB6B
S31500004AF0CDE90401C4E700BFD86C0000B06C00002B
S31500004B000000F03F0000244000001C40000014405C
S31500004B100000E03F314656462846FEF747FB15940F
S31500004B20CDE91001DDE9040101F072FC0546FEF74E
S31500004B30D3FA024630350B46DDE90401FEF77EF96D
S31500004B4006F8015B02460B46A642CDE904234FF068
S31500004B50000224D1AB4BDDE91001FEF771F90246E4
S31500004B600B46DDE90401FEF7B1FD002863D1002004
S31500004B70A449DDE91023FEF761F902460B46DDE99B
S31500004B800401FEF785FD00283FF414AF159E731E41
S31500004B90159316F8013C302BF8D0069F3BE09A4B54
S31500004BA0FEF704FBCDE90401BCE7DDE90445564602
S31500004BB020462946DDE90023FEF722FC01F028FC09
S31500004BC08046FEF789FADDE90023FEF7EFFA024692
S31500004BD0204608F130040B462946FEF72FF9039DBF
S31500004BE006F8014BA6EB0A0402460B46A54234D151
S31500004BF0FEF726F904460D46DDE90023FEF766FDBD
S31500004C00C0B920462946DDE90023FEF737FD10B17D
S31500004C1018F0010F0ED14946584600F0AFFB0023AD
S31500004C2001373370139B1F60239B002B00F03C82DF
S31500004C301E6039E2069733461E4613F8012D392ABF
S31500004C4007D19A45F8D1069A0132069230228AF89F
S31500004C5000201A7801321A709FE700226A4BFEF78D
S31500004C60A5FA0022002304460D46FEF707FD00289C
S31500004C709ED0D0E70B9A002A00F0E180099A012A1B
S31500004C8000F3C480149A002A00F0B78003F233437D
S31500004C900A9C4646089A0121584698441A440892A6
S31500004CA000F022FC05465EB1089B002B08DDB342EE
S31500004CB0089AA8BF3346A8EB0308F61AD31A089336
S31500004CC00A9BF3B10B9B002B00F0BD808CB12946EB
S31500004CD02246584600F0C2FC4A460146054658465A
S31500004CE000F018FC49460690584600F047FB069B24
S31500004CF099460A9B1A1B04D04946584600F0AEFC5A
S31500004D0081460121584600F0EFFB0F9B0446002B1D
S31500004D1000F0CE811A460146584600F09FFC099BDA
S31500004D200446012B00F39580049B002B40F08D80F8
S31500004D30059BC3F31303002B40F08980059B23F0EA
S31500004D4000431B0D1B052BB1089B08F1010801331D
S31500004D50089301230A930F9B002B00F0AF81236970
S31500004D6004EB8303186900F073FBC0F12000089B75
S31500004D70184410F01F0077D0C0F12003042B6BDD20
S31500004D80C0F11C00089B8044034406440893B8F114
S31500004D90000F05DD49464246584600F0B9FC8146FB
S31500004DA0089B002B05DD21461A46584600F0B0FC4C
S31500004DB00446129B002B59D02146484600F014FDAC
S31500004DC0002853DA7B1E49460A22584606930023DA
S31500004DD000F0F6FA0B9B8146002B00F07181002350
S31500004DE029460A22584600F0EBFA009B0546002B9E
S31500004DF067DC099B022B41DC63E0169BC3F136039B
S31500004E0046E700BF0000E03F00002440039B5C1E15
S31500004E100A9BA34209DB1C1B039B002BBFF639AF81
S31500004E20039BA8EB0306002334E70A9B46460F9A2A
S31500004E30E31A0A9400241A44039B0F922AE70A9C59
S31500004E4046460B9D2FE70A9A56E7002382E7049B06
S31500004E5080E700230A9382E799D01C33089A1A4404
S31500004E6098441E44089292E70346F6E7039B06978A
S31500004E70002B20DC0093099B022B1EDD009B002BE0
S31500004E807FF4C2AD21460522584600F099FA014644
S31500004E900446484600F0A8FC00287FF7B5AD31234C
S31500004EA0564606F8013B069B01330693B0E5039C84
S31500004EB006972546F3E7039B00930B9B002B00F018
S31500004EC00381002E05DD29463246584600F020FCB7
S31500004ED005460A9B002B5AD06968584600F00EFA20
S31500004EE0064628B9834B024640F2EF21FFF75FBB27
S31500004EF02A6905F10C010C3002329200FFF79DFA87
S31500004F0001223146584600F003FC0AF101032F4600
S31500004F1005460393009B53440B93049B03F0010344
S31500004F200A93039B21464846013B0093FFF79AFAF2
S31500004F303946049000F13008484600F055FC2A46F0
S31500004F4008902146584600F06BFCC268064602BB34
S31500004F500146484600F048FC0246314658460E9245
S31500004F6000F00CFA099B0E9A039E42EA03010A9B83
S31500004F70194310D1B8F1390F29D0089B002B02DD57
S31500004F80049B03F13108009B83F8008041E5284625
S31500004F90BBE70122E1E7089B002B04DB09990B43E1
S31500004FA00A990B4320D1002AEDDD494601225846D5
S31500004FB000F0AEFB2146814600F016FC002803DC1B
S31500004FC0E1D118F0010FDED0B8F1390FD8D139236D
S31500004FD0009A137033461E46013B16F8012C392AF7
S31500004FE051D001321A7014E5002A07DDB8F1390FE5
S31500004FF0EDD008F10103009A13700AE5039B0B9AA2
S3150000500003F8018C934228D0494600230A225846C9
S3150000501000F0D6F9AF4281464FF000034FF00A0286
S315000050203946584607D100F0CBF907460546039B9B
S315000050300133039375E700F0C3F9294607460023B9
S315000050400A22584600F0BCF90546F0E7009B002707
S31500005050002BCCBF1E46012656444946012258461F
S3150000506000F056FB2146814600F0BEFB0028B1DC6D
S3150000507002D118F0010FADD133461E4613F8012DAB
S31500005080302AFAD0C5E49A45A5D1069B013306938A
S3150000509031238AF80030BCE4239BDFF85CA01BB107
S315000050A00AF10803239A1360504619B0BDE8F08F41
S315000050B0099B012B7FF738AE0F9B0A93012056E61A
S315000050C0009B002B7FF7D7AE564621464846FFF792
S315000050D0C9F900F13008009B06F8018BA6EB0A021D
S315000050E09342B3DD494600230A22584600F068F988
S315000050F08146EAE7196C00009C6B000038B505464E
S31500005100002941D051F8043C0C1F002BB8BFE4180D
S3150000511000F0E8F81D4A136833B963601460284646
S31500005120BDE8384000F0E4B8A34208D92068211849
S315000051308B4201BF19685B6809182160EDE71A46C2
S315000051405B680BB1A342FAD911685018A0420BD183
S3150000515020680144501811608342E0D118685B68EA
S31500005160084453601060DAE702D90C232B60D6E7B7
S31500005170206821188B4202BF19685B6809186360B2
S3150000518008BF21605460CAE738BD00BFBC060020D6
S31500005190024B0146186800F025B800BF58000020F1
S315000051A070B50F4E0C460546316811B901F0A0F8EE
S315000051B030602146284601F09BF8431C03D14FF08E
S315000051C0FF34204670BDC41C24F00304A042F8D06E
S315000051D0211A284601F08CF80130F2D1EFE700BF22
S315000051E0B80600202DE9F843CD1C064625F0030538
S315000051F008350C2D38BF0C25002D01DBA94204D93A
S315000052000C2333600020BDE8F883DFF8D48000F07B
S3150000521069F8D8F800301C4644BB29463046FFF7EB
S31500005220BFFF431C044658D1D8F800402746002F3C
S3150000523043D1002C4BD023683946304604EB030992
S3150000524001F056F8814542D1216830466D1A29464B
S31500005250FFF7A6FF01303AD023682B442360D8F825
S3150000526000305A6862BBC8F800700FE02268521B13
S3150000527020D40B2A17D96119A342256018BF59609B
S31500005280636808BFC8F8001062514B60304600F0F2
S315000052902FF804F10B00231D20F00700C21A1CBFD3
S315000052A01B1AA350AFE76268A3420CBFC8F80020E0
S315000052B05A60EBE723466468AEE73C467F68B6E78C
S315000052C01A465B68A342FBD100235360DEE70C233A
S315000052D03046336000F00CF894E70560D6E700BF6F
S315000052E0BC0600200148FFF798B800BFB4060020AE
S315000052F00148FFF793B800BFB406002070B5C66931
S3150000530004460D4676B91020FFF742FF0246E061DB
S3150000531020B9184B6B211848FDF702FCC0E901665D
S315000053200660C660E669F36883B1E369DB6853F833
S315000053302500B8B90121204601FA05F6721D920032
S3150000534000F0E6FF60B1C0E901560EE0212204211B
S31500005350204600F0DDFFE369F060DB68002BE4D156
S31500005360002070BD026843F825200023C0E90333FE
S31500005370F7E700BFA96B00002A6C000070B5C6698C
S3150000538005460C4676B91020FFF702FF0246E86193
S3150000539020B9094B8F210948FDF7C2FBC0E9016618
S315000053A00660C6603CB1EB696268DB6853F82210A0
S315000053B0216043F8224070BDA96B00002A6C0000F2
S315000053C02DE9F04101F1140C07460C461E460D6905
S315000053D00020DCF80030013099B2854202FB016101
S315000053E04FEA13464FEA114389B202FB063301EB3B
S315000053F003414FEA13464CF8041BEADC0EB3A368DC
S31500005400AB4219DC616838460131FFF777FF804609
S3150000541028B902460C4BBA210C48FDF781FB2269DC
S3150000542004F10C010C3002329200FFF706F8214617
S3150000543044463846FFF7A2FF04EB850301355E615B
S3150000544025612046BDE8F081196C00002A6C000039
S31500005450B0F5803F034636BF030400201020B3F1A9
S31500005460807F3CBF1B020830B3F1805F3CBF1B014D
S315000054700430B3F1804F3CBF9B000230002B05DBAC
S3150000548013F0804F00F1010008BF20207047036829
S31500005490024613F007000BD0D90721D4980747BF5F
S315000054A05B0801209B0802204CBF13601360704705
S315000054B099B209B91B0C1020D9B209B908301B0AD8
S315000054C0190704BF1B090430990704BF9B08023063
S315000054D0D90703D45B0800F1010003D013607047BD
S315000054E0002070472020704710B50C460121FFF7B9
S315000054F005FF024628B9054B40F245110448FDF761
